:030000000200AF4C
:0C00AF00787FE4F6D8FD7581200200F691
:1001EF00C0F9A4B0999282F88090FF407924301919
:1001FF001202780010FFC0F9A4B0999282F8809093
:10020F004079243019120278001080402010080421
:02021F000201DA
:10028300080900000000000000000111000108003F
:02029300C18028
:0B02960012000312013B1202A180F5D0
:0702AB00AE071FEE70FA22FE
:0502B2007F7CDFFE224D
:10024600E4FDD2B67F081202ABC2B67F501202ABF3
:10025600D2B67F051202ABA2B6E433FD7F140202CA
:01026600ABEC
:10022100E4FC7D08D2B67F011202ABC2B6ECC31367
:10023100FCD2B630B6034304807F041202ABDDE486
:04024100AF047E0088
:010245002296
:02026700AD07E1
:100269007B08C2B6ED1392B67F051202ABD2B6ED8A
:0A027900C313FDDBED7F040202ABAE
:100003001202467FCC1202677F441202677F7D1281
:1000130002AB1202467FCC1202677FBE1202671246
:1000230002218F111202218F08E508D3947F400B20
:100033006311FFE508F404F508C200E511C4540F89
:10004300FD7C00E50875F010A4AEF02DF514EC3E30
:10005300F513E511540FFD75F00AA4FFE5F0C4F89C
:1000630054F0C8EFC4540F48F515ED75F064A4FFC0
:10007300E5F0C4F854F0C8EFC4540F4875F00A848F
:1000830085F016E51575F00AA42516F512AE13AF23
:10009300147D0A12019A8F0CAE13AF147C007D0AF3
:0C00A30012019A8D0B85150A85160922A2
:10013B00E518701B0518E51790021993FEE4FFC232
:10014B00A4EE3392A2EE25E0FED2A40FBF08F0E599
:10015B00186401702F1518E517B4020B2409F8E683
:10016B0090020F93FE800B74092517F8E690020599
:10017B0093FEE4FFC2A4EE3392A2EE25E0FED2A4DE
:0E018B000FBF08F00517E517B40403E4F517DD
:010199002243
:0A02A100C2A37F011202ABD2A32218
:1000BB00020296E493A3F8E493A34003F68001F2C3
:1000CB0008DFF48029E493A3F85407240CC8C33346
:1000DB00C4540F4420C8834004F456800146F6DF15
:1000EB00E4800B0102040810204080900283E47E20
:1000FB00019360BCA3FF543F30E509541FFEE4930A
:10010B00A360010ECF54C025E060A840B8E493A3D0
:10011B00FAE493A3F8E493A3C8C582C8CAC583CAFB
:10012B00F0A3C8C582C8CAC583CADFE9DEE780BEB3
:010295000068
:10019A00BC000BBE0029EF8DF084FFADF022E4CC49
:1001AA00F875F008EF2FFFEE33FEEC33FCEE9DEC12
:1001BA00984005FCEE9DFE0FD5F0E9E4CEFD22ED58
:1001CA00F8F5F0EE8420D21CFEADF075F008EF2FA2
:1001DA00FFED33FD4007985006D5F0F222C398FD93
:0501EA000FD5F0EA2230
:00000001FF
