:030000000202FBFE
:0C02FB00787FE4F6D8FD758163020342B1
:10043300204352432069732077726F6E67202E200A
:10044300003F065B4F666D7D077F6F777C395E7972
:1004530071204453313842323020204552523052B9
:1004630020002020504C4541534520434845434BF1
:1004730020200020202044533138423230204F4B7B
:040483002020200015
:10051500114B2020202020202020202020202020BA
:0305250020200093
:0E071400E4F580D2A7C2A7F580D2A6C2A62225
:06070400D2A07F087E0078
:0A070A00EF1F70011E144E70F7225D
:10061900120704C2A07F5A7E0012070A120704A219
:0D062900A092007F647E0012070AD2A0227A
:1005D100C2A00FBF0000D2A00FBF00000FBF0000DC
:1005E100A2A092017E007F08EF1F70011EEF4E70E6
:0305F100F7A2016D
:0105F40022E4
:10063600E4FD7C011205D1E433FFC4333333548027
:0C064600FEEDC3134EFD0CBC09EAAF052D
:010652002285
:100487007E01EF139201EFC313FF30011BC2A00BD4
:10049700BB00000BBB0000D2A07A007B08EB1B70EF
:1004A700011AEB4A70F7801BC2A07A007B08EB1B8E
:1004B70070011AEB4A70F7D2A00BBB00010A0BBB05
:0704C70000010A0EBE09BB93
:0104CE00220B
:1006CC001206197F057E001205FB7FCC1204877F72
:0406DC004402048749
:100387001206197F057E001205FB7FCC1204877FBA
:10039700BE120487120636AB07120636EFFEEBFFD6
:1003A700FDAC06EC120206E4FBFA7980783D1200F8
:1003B700FB8F0B8E0A8D098C08E4FFFE7D207C41A4
:1003C700AB0BAA0AA909A8081200FBE4FBFAF97803
:0703D7003F12000A12023F71
:0103DE0022FC
:100670001206197F33120487E4FB120636745C2BD2
:07068000F8A6070BBB08F30D
:010687002250
:10057F00E4FFFE745C2EF8E6FDE4FCEF6D20E00670
:10058F00EFC313FF800A630718EFC313FF430780FE
:0C059F00EDC313FD0CBC08E30EBE08D732
:0105AB00222D
:1004CF00E4FEFD745C2DF8E6FCC4540FFFD39409D1
:1004DF00400674372FFF800474302FFFAB060E7465
:1004EF004B2BF8A607EC540FFFD394094006743733
:1004FF002FFF800474302FFFAC060E744B2CF8A620
:05050F00070DBD08BE50
:0105140022C4
:10068800E4F5087F017E001205FBB2A20508E50823
:07069800C3946440EED2A2FE
:01069F002238
:1006A0007BFF7A047976E4FF12054F7B007A0079AC
:0606B0004B7F0102054F23
:1006B6007BFF7A047954E4FF12054F7BFF7A0479B5
:0606C600657F0102054FF3
:1003DF001207141205AC1206CC1203871206701204
:1003EF00057FEF700B1204CF1206A0120688801340
:1003FF007BFF7A0479337F0112054F800620000CB2
:10040F001206197FE87E031205FB80F112061930E0
:10041F0000CA1206B61206191206887FE87E03126A
:04042F0005FB80EB5E
:10052800113A2020202020202020202020202020B8
:1005380020200011292020202020202020202020D9
:060548002020202020000D
:0605F500AB077F057E004C
:1005FB00D3EF9400EE940040147D727C00ED1D70DF
:0D060B00011CED4C70F7EF1F70E61E80E340
:0106180022BF
:1006F3001205F5C295C293C29400D2958B80C29520
:0107030022D3
:1006E0001205F5C295D293C29400D2958B80C29523
:0306F000C2932290
:04065300AE07A90540
:10065700EEC39410EE400524B0FA80032480FAAF6D
:09066700021206F3AF010206E0E5
:06054F008B088A09890AED
:10055500EFC454F0F50BE4F50CAF0B050BAB08AA93
:1005650009A90A850C827583001202C0FD12065383
:09057500050CE50CC3941040E0F4
:01057E00225A
:1005AC007F0F7E001205FB7F381206F37F38120690
:1005BC00F37F381206F37F061206F37F0C1206F354
:0505CC007F010206F3AF
:100003000202ABE86480F8E933E83360110460F07E
:10001300ED33EC337009E8FCE9FDEAFEEBFF220463
:1000230060DED3EB9FEA9EE99DE8C2E78CF0C2F75E
:1000330095F0400CE8CCF8E9CDF9EACEFAEBCFFB2A
:1000430012027685D0F05804700320D5B3E804700B
:10005300075002B2D50202B592D5EC0460F7E4CCA6
:10006300C0E0C398F8603B94186008400DD0E0FBF3
:1000730002028DE4FBFAC9FC8028E830E406E4C9F7
:10008300FBE4CAFCE830E305E4C9CACBFCE8540747
:100093006010F8C3E913F9EA13FAEB13FBEC13FC52
:1000A300D8F130F52FC3E49CFCEF9BFFEE9AFEEDF5
:1000B30099FDD0E0FBEF4E4D4C701222DB030202A0
:1000C300B2EC2CFCEF33FFEE33FEED33FDED30E706
:1000D300EB02028DEF2BFFEE3AFEED39FDD0E0FB94
:1000E30050130BBB00030202B5ED13FDEE13FEEF3D
:0800F30013FFEC13FC02028D67
:1000FB00EC4D6011E8497017ED33EC3304600DE4FF
:10010B00FCFFFEFD22E933E8330470F80202AB1268
:10011B00027658046009E4CC248150062850090269
:10012B0002B52840030202B2C0E0EB4A7044B9802A
:10013B0006D0E0FB0202A1EF4E701CBD8008EBFF66
:10014B00EAFEE9FD80EBE98DF0A4FEE5F00201E4A7
:10015B00E9CDF9EAFEEBFFEF89F0A4FCE5F0CE89DF
:10016B00F0A42EFFE435F0CD89F0A42DFEE435F09C
:10017B008067EF4E7005BD80D780C3EF8BF0A4ACCA
:10018B00F0EE8BF0A42CFCE435F0F8EF8AF0A42C05
:10019B00E5F038FCE433CB8DF0A42CFCE5F03BF818
:1001AB00EE8AF0A42CFCE5F038F8E433CF89F0A408
:1001BB002CFCE5F038CF3400CE89F0A42FFFE5F00E
:1001CB003EFEE433C98DF0A42EFEE5F039CD8AF066
:1001DB00A42FFFE5F03EFEE43DFD33D0E0FB5007DE
:1001EB000BBB000F0202B5EC2CFCEF33FFEE33FE22
:0601FB00ED33FD02028D50
:1002010075F020800E75F010800575F0087D007E78
:10021100007F003392D530D5031202EDEC3340104C
:10022100EF33FFEE33FEED33FDEC33FCD5F0ED2281
:0E023100E5F0247EA2D513CC92E7CDCEFF22BD
:10023F00EDD2E7CD33EC3392D524814006E4FFFEB7
:10024F00FDFC22FCE4CFCECDCC24E0501174FF8016
:10025F00EDC3CC13CCCD13CDCE13CECF13CF0470B3
:07026F00F030D5DE0202EDC4
:10027600E9D2E7C933E833F892D5EDD2E7CD33ECCE
:0702860033FC5002B2D52247
:10028D00EC30E7100FBF000C0EBE00080DBD0004D2
:10029D000BEB6014A2D5EB13FCED92E7FD2274FF7E
:1002AD00FCFDFEFF22E480F8A2D574FF13FC7D80D7
:0302BD00E480EFEB
:100307000203DFE493A3F8E493A34003F68001F22A
:1003170008DFF48029E493A3F85407240CC8C333F7
:10032700C4540F4420C8834004F456800146F6DFC6
:10033700E4800B0102040810204080900515E47E3C
:10034700019360BCA3FF543F30E509541FFEE493BB
:10035700A360010ECF54C025E060A840B8E493A382
:10036700FAE493A3F8E493A3C8C582C8CAC583CAAD
:10037700F0A3C8C582C8CAC583CADFE9DEE780BE65
:01054E0000AC
:1002C000BB010CE58229F582E5833AF583E02250F3
:1002D00006E92582F8E622BBFE06E92582F8E2223D
:0D02E000E58229F582E5833AF583E4932257
:0E02ED00C3E49FFFE49EFEE49DFDE49CFC2222
:00000001FF
