:03000000020107F3
:0C010700787FE4F6D8FD7581080200F056
:0B011E00C0F9A4B0999282F88090FF15
:06011300F583E493F58082
:040119007F7CDFFE0A
:01011D0022BF
:10008E00AB07AA0675A0017C007D64AF03AE021219
:10009E0000037E007F0ACFCDCFCECCCE12000374EC
:1000AE001E2FF58274013E1201137580FF75A0029A
:1000BE00AE02AF037C007D0A120003741E2DF58282
:0A00CE0074013C1201137580FF223B
:1000D800D2AFD2ACD2AB758920E4F587759850754C
:0800E8008DFD758BFDD28E2207
:1000F0001200D8309808859908850899C298AF08E9
:070100007E0012008E80EC6E
:10000300C2D5EC30E709B2D5E4C39DFDE49CFCEE18
:1000130030E715B2D5E4C39FFFE49EFE120039C357
:10002300E49DFDE49CFC800312003930D507C3E452
:060033009FFFE49EFE2287
:10003900BC000BBE0029EF8DF084FFADF022E4CCAB
:10004900F875F008EF2FFFEE33FEEC33FCEE9DEC74
:10005900984005FCEE9DFE0FD5F0E9E4CEFD22EDBA
:10006900F8F5F0EE8420D21CFEADF075F008EF2F04
:10007900FFED33FD4007985006D5F0F222C398FDF5
:050089000FD5F0EA2292
:00000001FF
