:0300000002091FD3
:0C091F00787FE4F6D8FD7581200209669F
:100A8000C0F9A4B0999282F88090FF40792430197F
:060A90001202780010FFC5
:080AAC00010900010800C180EE
:0A0AA200EFD3940040031F80F722F9
:100A46007C007D0AAF03AE021209AB74802FF582DB
:090A5600740A3EF583E493F58077
:040A5F007F7CDFFEBB
:010A63002270
:100A2500E4FED2B67F08120AA2C2B67F50120AA20D
:100A3500D2B67F05120AA2A2B6E433FE7F14020ADB
:010A4500A20E
:100A0000E4FD7E08D2B67F01120AA2C2B6EDC3137E
:100A1000FDD2B630B6034305807F04120AA2DEE49D
:040A2000AF057E00A0
:010A240022AF
:020A6400AE07DB
:100A66007D08C2B6EE1392B67F05120AA2D2B6EE82
:0A0A7600C313FEDDED7F04020AA2A7
:10089100120A257FCC120A647F44120A647F7D12FA
:1008A1000AA2120A257FCC120A647FBE120A6412C0
:1008B1000A008F09120A008F08E508D3947F400BC4
:1008C1006309FFE508F404F508C200E509C4540F03
:1008D100FD7C00E50875F010A4AEF02DF50CEC3EA2
:1008E100F50BE509540FFD75F00AA4FFE5F0C4F816
:1008F10054F0C8EFC4540F48F50DED75F064A4FF32
:10090100E5F0C4F854F0C8EFC4540F4875F00A84F8
:0E09110085F00EE50D75F00AA4250EF50A22FC
:10080000AB07AA0630004475A0FE120A467580FFA9
:1008100075A0FD7C007D0AAF03AE021209AB748B9C
:100820002DF582740A3C120A597580FF75A0FBE50C
:100830000D900A8093F580120A5F7580FF75A0F70E
:10084000E50E93F580120A5F7580FF20004275A0C7
:10085000FE900A8B120A5B7580FF75A0FD120A4696
:100860007580FF75A0FBAE02AF037C007D0A120904
:10087000AB748B2DF582740A3C120A597580FF7592
:10088000A0F7E50D900A8093F580120A5F7580FF4E
:010890002245
:0C0A9600120891AF0CAE0B12080080F4A7
:10092B00020A96E493A3F8E493A34003F68001F242
:10093B0008DFF48029E493A3F85407240CC8C333CD
:10094B00C4540F4420C8834004F456800146F6DF9C
:10095B00E4800B0102040810204080900AACE47E76
:10096B00019360BCA3FF543F30E509541FFEE49391
:10097B00A360010ECF54C025E060A840B8E493A358
:10098B00FAE493A3F8E493A3C8C582C8CAC583CA83
:10099B00F0A3C8C582C8CAC583CADFE9DEE780BE3B
:010AB4000041
:1009AB00BC000BBE0029EF8DF084FFADF022E4CC30
:1009BB00F875F008EF2FFFEE33FEEC33FCEE9DECF9
:1009CB00984005FCEE9DFE0FD5F0E9E4CEFD22ED3F
:1009DB00F8F5F0EE8420D21CFEADF075F008EF2F89
:1009EB00FFED33FD4007985006D5F0F222C398FD7A
:0509FB000FD5F0EA2217
:00000001FF
