:030000000204AA4D
:0C04AA00787FE4F6D8FD75814A0204F169
:1005D6003F065B4F666D7D077F6F777C395E79716D
:1005E6004E6F772069733A2020202020202020207B
:1005F600004C696D69742069733A20202020202000
:020606002000D2
:0E075D00E4F580D2A7C2A7F580D2A6C2A622DC
:1006CC00C2A07F677E00EF1F70011EEF4E70F7D245
:0E06DC00A07E007F04EF1F70011EEF4E70F72E
:0106EA0022ED
:10068400C2A00FBF0000D2A00FBF00000FBF000028
:10069400A2A092007E007F08EF1F70011EEF4E7033
:0306A400F7A200BA
:0106A7002230
:1006EB00E4FD7C01120684E433FFC43333335480BE
:0C06FB00FEEDC3134EFD0CBC09EAAF0578
:0107070022CF
:10058E007E01EF139200EFC313FF30001BC2A00BCE
:10059E00BB00000BBB0000D2A07A007B08EB1B70E7
:1005AE00011AEB4A70F7801BC2A07A007B08EB1B86
:1005BE0070011AEB4A70F7D2A00BBB00010A0BBBFD
:0705CE0000010A0EBE09BB8B
:0105D5002203
:100725001206CC7F057E001206AE7FCC12058E7FA9
:040735004402058EE7
:100536001206CC7F057E001206AE7FCC12058E7F9A
:10054600BE12058E1206EBAB071206EBEFFEEBFFB3
:10055600FDAC06EC120206E4FBFA7980783D120047
:10056600FB8F128E118D108C0FE4FFFE7D207C41D7
:10057600AB12AA11A910A80F1200FBE4FBFAF97836
:070586003F12000A12023FC0
:01058D00224B
:10038600750A01750B4A12075D12065F7BFF7A0537
:1003960079E6E4FF1206087BFF7A0579F77F0112FA
:1003A60006087BFF7A0579F77F01120608AE0AAFC9
:1003B6000B7C007D641202ED8F0CAE0AAF0B7C0045
:1003C6007D641202ED7E007F0ACFCDCFCECCCE1259
:1003D60002ED8F0DAE0AAF0B7C007D0A1202ED8D89
:1003E6000EC3E50A6480948050077D2D7F1912079D
:1003F60008E50C2430FD7F1A120708E50D2430FDB0
:100406007F1B1207087D2E7F1C120708E50E24307D
:10041600FD7F1D1207081207251205368E088F0963
:100426007C007D641202ED8F0CAE08AF097C007D66
:10043600641202ED7E007F0ACFCDCFCECCCE120263
:10044600ED8F0DAE08AF097C007D0A1202ED8D0E10
:10045600C3E5086480948050077D2D7F0912070844
:10046600E50C2430FD7F0A120708E50D2430FD7FD8
:100476000B1207087D2E7F0C120708E50E2430FDAF
:100486007F0D120708D3E509950BE50A6480F8E5A8
:10049600086480984080C2A27F647E001206AED2B5
:0404A600A202041C8E
:10063800113A2020202020202020202020202020A7
:1006480020200011292020202020202020202020C8
:06065800202020202000FC
:0606A800AB077F057E0098
:1006AE00D3EF9400EE940040147D727C00ED1D702B
:0D06BE00011CED4C70F7EF1F70E61E80E38D
:0106CB00220C
:10074C001206A8C295C293C29400D2958B80C29512
:01075C00227A
:100739001206A8C295D293C29400D2958B80C29515
:03074900C2932236
:04070800AE07A9058A
:10070C00EEC39410EE400524B0FA80032480FAAFB7
:09071C000212074CAF010207397B
:060608008B0F8A1089111E
:10060E00EFC454F0F512E4F513AF120512AB0FAAB6
:10061E0010A9118513827583001202C0FD120708FE
:09062E000513E513C3941040E02C
:0106370022A0
:10065F007F0F7E001206AE7F3812074C7F381207CD
:10066F004C7F3812074C7F0612074C7F0C12074C39
:05067F007F0102074CA1
:100003000202ABE86480F8E933E83360110460F07E
:10001300ED33EC337009E8FCE9FDEAFEEBFF220463
:1000230060DED3EB9FEA9EE99DE8C2E78CF0C2F75E
:1000330095F0400CE8CCF8E9CDF9EACEFAEBCFFB2A
:1000430012027685D0F05804700320D5B3E804700B
:10005300075002B2D50202B592D5EC0460F7E4CCA6
:10006300C0E0C398F8603B94186008400DD0E0FBF3
:1000730002028DE4FBFAC9FC8028E830E406E4C9F7
:10008300FBE4CAFCE830E305E4C9CACBFCE8540747
:100093006010F8C3E913F9EA13FAEB13FBEC13FC52
:1000A300D8F130F52FC3E49CFCEF9BFFEE9AFEEDF5
:1000B30099FDD0E0FBEF4E4D4C701222DB030202A0
:1000C300B2EC2CFCEF33FFEE33FEED33FDED30E706
:1000D300EB02028DEF2BFFEE3AFEED39FDD0E0FB94
:1000E30050130BBB00030202B5ED13FDEE13FEEF3D
:0800F30013FFEC13FC02028D67
:1000FB00EC4D6011E8497017ED33EC3304600DE4FF
:10010B00FCFFFEFD22E933E8330470F80202AB1268
:10011B00027658046009E4CC248150062850090269
:10012B0002B52840030202B2C0E0EB4A7044B9802A
:10013B0006D0E0FB0202A1EF4E701CBD8008EBFF66
:10014B00EAFEE9FD80EBE98DF0A4FEE5F00201E4A7
:10015B00E9CDF9EAFEEBFFEF89F0A4FCE5F0CE89DF
:10016B00F0A42EFFE435F0CD89F0A42DFEE435F09C
:10017B008067EF4E7005BD80D780C3EF8BF0A4ACCA
:10018B00F0EE8BF0A42CFCE435F0F8EF8AF0A42C05
:10019B00E5F038FCE433CB8DF0A42CFCE5F03BF818
:1001AB00EE8AF0A42CFCE5F038F8E433CF89F0A408
:1001BB002CFCE5F038CF3400CE89F0A42FFFE5F00E
:1001CB003EFEE433C98DF0A42EFEE5F039CD8AF066
:1001DB00A42FFFE5F03EFEE43DFD33D0E0FB5007DE
:1001EB000BBB000F0202B5EC2CFCEF33FFEE33FE22
:0601FB00ED33FD02028D50
:1002010075F020800E75F010800575F0087D007E78
:10021100007F003392D530D503120323EC33401015
:10022100EF33FFEE33FEED33FDEC33FCD5F0ED2281
:0E023100E5F0247EA2D513CC92E7CDCEFF22BD
:10023F00EDD2E7CD33EC3392D524814006E4FFFEB7
:10024F00FDFC22FCE4CFCECDCC24E0501174FF8016
:10025F00EDC3CC13CCCD13CDCE13CECF13CF0470B3
:07026F00F030D5DE0203238D
:10027600E9D2E7C933E833F892D5EDD2E7CD33ECCE
:0702860033FC5002B2D52247
:10028D00EC30E7100FBF000C0EBE00080DBD0004D2
:10029D000BEB6014A2D5EB13FCED92E7FD2274FF7E
:1002AD00FCFDFEFF22E480F8A2D574FF13FC7D80D7
:0302BD00E480EFEB
:1004B600020386E493A3F8E493A34003F68001F2D3
:1004C60008DFF48029E493A3F85407240CC8C33347
:1004D600C4540F4420C8834004F456800146F6DF16
:1004E600E4800B0102040810204080900638E47E68
:1004F600019360BCA3FF543F30E509541FFEE4930B
:10050600A360010ECF54C025E060A840B8E493A3D1
:10051600FAE493A3F8E493A3C8C582C8CAC583CAFC
:10052600F0A3C8C582C8CAC583CADFE9DEE780BEB4
:01065E00009B
:1002C000BB010CE58229F582E5833AF583E02250F3
:1002D00006E92582F8E622BBFE06E92582F8E2223D
:0D02E000E58229F582E5833AF583E4932257
:1002ED00C2D5EC30E709B2D5E4C39DFDE49CFCEE2C
:1002FD0030E715B2D5E4C39FFFE49EFE120331C370
:10030D00E49DFDE49CFC800312033130D507C3E46A
:06031D009FFFE49EFE229A
:0E032300C3E49FFFE49EFEE49DFDE49CFC22EB
:10033100BC000BBE0029EF8DF084FFADF022E4CCB0
:10034100F875F008EF2FFFEE33FEEC33FCEE9DEC79
:10035100984005FCEE9DFE0FD5F0E9E4CEFD22EDBF
:10036100F8F5F0EE8420D21CFEADF075F008EF2F09
:10037100FFED33FD4007985006D5F0F222C398FDFA
:050381000FD5F0EA2297
:00000001FF
