:0300000002052EC8
:0C052E00787FE4F6D8FD758120020359A7
:10051000C0F9A4B0999282F880908883C6A1868E93
:08046B00FD1204D47F027E00A3
:10047300D3EF9400EE940040147D727C00ED1D7068
:0D048300011CED4C70F7EF1F70E61E80E3CA
:010490002249
:0E052000E4F580D2A7C2A7F580D2A6C2A6221B
:1004B500C2A07F677E00EF1F70011EEF4E70F7D25E
:0E04C500A07E007F04EF1F70011EEF4E70F747
:0104D3002206
:10049100C2A00FBF0000D2A00FBF00000FBF00001D
:1004A100A2A092007E007F08EF1F70011EEF4E7028
:0304B100F7A200AF
:0104B4002225
:1004F300E4FD7C01120491E433FFC43333335480AD
:0C050300FEEDC3134EFD0CBC09EAAF0571
:01050F0022C9
:0C03CB001204B57F057E001204737FCC85
:1003D7007E01EF139200EFC313FF30001BC2A00B87
:1003E700BB00000BBB0000D2A07A007B08EB1B70A0
:1003F700011AEB4A70F7801BC2A07A007B08EB1B3F
:1004070070011AEB4A70F7D2A00BBB00010A0BBBB5
:0704170000010A0EBE09BB43
:01041E0022BB
:08053A001203CB7F440203D73A
:10041F001203CB7FBE1203D71204F3AB071204F300
:10042F00EFFEEBFFFDAC06EC120206E4FBFA79805F
:10043F00783D1200FB8F0D8E0C8D0B8C0AE4FFFEA6
:10044F007D207C41AB0DAA0CA90BA80A1200FBE47E
:0B045F00FBFAF9783F12000A12023F7E
:01046A00226F
:1004D4007480A807088002C313D8FCFF8D80D2A7BC
:0F04E400C2A78F80D2A6C2A67F017E000204733A
:1003590012052012053A12041FAB07AA067C007D7C
:10036900641202C08F087C007D64AF03AE021202E2
:10037900C07E007F0ACFCDCFCECCCE1202C08F096E
:100389007C007D0AAF03AE021202C0A905C3EA646C
:1003990080948050077DBF7F031204D4E50890053F
:1003A90010937F0212046BE5099324807F011204E4
:1003B9006BE993FDE4FF1204D47F017E00120473FC
:0203C900809121
:100003000202ABE86480F8E933E83360110460F07E
:10001300ED33EC337009E8FCE9FDEAFEEBFF220463
:1000230060DED3EB9FEA9EE99DE8C2E78CF0C2F75E
:1000330095F0400CE8CCF8E9CDF9EACEFAEBCFFB2A
:1000430012027685D0F05804700320D5B3E804700B
:10005300075002B2D50202B592D5EC0460F7E4CCA6
:10006300C0E0C398F8603B94186008400DD0E0FBF3
:1000730002028DE4FBFAC9FC8028E830E406E4C9F7
:10008300FBE4CAFCE830E305E4C9CACBFCE8540747
:100093006010F8C3E913F9EA13FAEB13FBEC13FC52
:1000A300D8F130F52FC3E49CFCEF9BFFEE9AFEEDF5
:1000B30099FDD0E0FBEF4E4D4C701222DB030202A0
:1000C300B2EC2CFCEF33FFEE33FEED33FDED30E706
:1000D300EB02028DEF2BFFEE3AFEED39FDD0E0FB94
:1000E30050130BBB00030202B5ED13FDEE13FEEF3D
:0800F30013FFEC13FC02028D67
:1000FB00EC4D6011E8497017ED33EC3304600DE4FF
:10010B00FCFFFEFD22E933E8330470F80202AB1268
:10011B00027658046009E4CC248150062850090269
:10012B0002B52840030202B2C0E0EB4A7044B9802A
:10013B0006D0E0FB0202A1EF4E701CBD8008EBFF66
:10014B00EAFEE9FD80EBE98DF0A4FEE5F00201E4A7
:10015B00E9CDF9EAFEEBFFEF89F0A4FCE5F0CE89DF
:10016B00F0A42EFFE435F0CD89F0A42DFEE435F09C
:10017B008067EF4E7005BD80D780C3EF8BF0A4ACCA
:10018B00F0EE8BF0A42CFCE435F0F8EF8AF0A42C05
:10019B00E5F038FCE433CB8DF0A42CFCE5F03BF818
:1001AB00EE8AF0A42CFCE5F038F8E433CF89F0A408
:1001BB002CFCE5F038CF3400CE89F0A42FFFE5F00E
:1001CB003EFEE433C98DF0A42EFEE5F039CD8AF066
:1001DB00A42FFFE5F03EFEE43DFD33D0E0FB5007DE
:1001EB000BBB000F0202B5EC2CFCEF33FFEE33FE22
:0601FB00ED33FD02028D50
:1002010075F020800E75F010800575F0087D007E78
:10021100007F003392D530D5031202F6EC33401043
:10022100EF33FFEE33FEED33FDEC33FCD5F0ED2281
:0E023100E5F0247EA2D513CC92E7CDCEFF22BD
:10023F00EDD2E7CD33EC3392D524814006E4FFFEB7
:10024F00FDFC22FCE4CFCECDCC24E0501174FF8016
:10025F00EDC3CC13CCCD13CDCE13CECF13CF0470B3
:07026F00F030D5DE0202F6BB
:10027600E9D2E7C933E833F892D5EDD2E7CD33ECCE
:0702860033FC5002B2D52247
:10028D00EC30E7100FBF000C0EBE00080DBD0004D2
:10029D000BEB6014A2D5EB13FCED92E7FD2274FF7E
:1002AD00FCFDFEFF22E480F8A2D574FF13FC7D80D7
:0302BD00E480EFEB
:1002C000C2D5EC30E709B2D5E4C39DFDE49CFCEE59
:1002D00030E715B2D5E4C39FFFE49EFE120304C3CA
:1002E000E49DFDE49CFC800312030430D507C3E4C5
:0602F0009FFFE49EFE22C8
:0E02F600C3E49FFFE49EFEE49DFDE49CFC2219
:10030400BC000BBE0029EF8DF084FFADF022E4CCDD
:10031400F875F008EF2FFFEE33FEEC33FCEE9DECA6
:10032400984005FCEE9DFE0FD5F0E9E4CEFD22EDEC
:10033400F8F5F0EE8420D21CFEADF075F008EF2F36
:10034400FFED33FD4007985006D5F0F222C398FD27
:050354000FD5F0EA22C4
:00000001FF
