:0300000002089162
:0C089100787FE4F6D8FD7581410208D89C
:100A3200C0F9A4B0999282F880908883C6A1868E6C
:0C0A4200013201013B00043600000000FE
:1009F400E4FDFFFEC2B5C2B4D2B4EF25E0FFEE338E
:0F0A0400FE30B603430701C2B40DBD10EBD2B5EF
:010A130022C0
:100A1400D3EF9400EE940040147D727C00ED1D70C1
:0D0A2400011CED4C70F7EF1F70E61E80E323
:010A310022A2
:1009D0007480A807088002C313D8FCFFED900A3288
:1009E00093F580D2A7C2A78F80D2A6C2A67F017E30
:0409F00000020A14E3
:10080000AB07AA06E53A706CD3EB94E7EA94034091
:100810000E7C037DE812097BAD077F031209D0D35C
:10082000EB9463EA9400401F7C037DE8AF03AE02C3
:1008300012097B7E007F64CFCDCFCECCCE12097B58
:10084000AD077F021209D0D3EB9409EA9400401758
:100850007C007D0AAF03AE0212097B7C007D0A1288
:10086000097B7F011209D0AE02AF037C007D0A1222
:10087000097B80177D0F7F031209D07D0F7F021245
:1008800009D07D0F7F011209D07D0FE4FF1209D03E
:010890002245
:10091D00753F0B1209F48E408F41EF5404F53A13D5
:10092D0013543FF53AE54125E0F541E54033F540F7
:10093D00C4F854F0C868F540E541C4540F48F5417A
:10094D00AE407802CEC313CE13D8F9F5348E33E40E
:10095D00F540F541AF34AE331208000541E5417065
:0E096D00020540C394C8E540940040E880A510
:10089D0002091DE493A3F8E493A34003F68001F24B
:1008AD0008DFF48029E493A3F85407240CC8C3335C
:1008BD00C4540F4420C8834004F456800146F6DF2B
:1008CD00E4800B0102040810204080900A42E47E6F
:1008DD00019360BCA3FF543F30E509541FFEE49320
:1008ED00A360010ECF54C025E060A840B8E493A3E7
:1008FD00FAE493A3F8E493A3C8C582C8CAC583CA12
:10090D00F0A3C8C582C8CAC583CADFE9DEE780BEC9
:010A4E0000A7
:10097B00BC000BBE0029EF8DF084FFADF022E4CC60
:10098B00F875F008EF2FFFEE33FEEC33FCEE9DEC29
:10099B00984005FCEE9DFE0FD5F0E9E4CEFD22ED6F
:1009AB00F8F5F0EE8420D21CFEADF075F008EF2FB9
:1009BB00FFED33FD4007985006D5F0F222C398FDAA
:0509CB000FD5F0EA2247
:00000001FF
