:0300000002038672
:0C038600787FE4F6D8FD75814A0203CDB3
:10053E00C0F9A4B0999282F880908883C6A1868E65
:10054E005468652074656D7065726174757265208E
:10055E00006973203A2020202020202020202020F7
:02056E0020006B
:0E06C500E4F580D2A7C2A7F580D2A6C2A62275
:10063400C2A07F677E00EF1F70011EEF4E70F7D2DD
:0E064400A07E007F04EF1F70011EEF4E70F7C6
:010652002285
:1005EC00C2A00FBF0000D2A00FBF00000FBF0000C1
:1005FC00A2A092007E007F08EF1F70011EEF4E70CC
:03060C00F7A20052
:01060F0022C8
:10065300E4FD7C011205ECE433FFC43333335480EF
:0C066300FEEDC3134EFD0CBC09EAAF0510
:01066F002268
:1004F6007E01EF139200EFC313FF30001BC2A00B67
:10050600BB00000BBB0000D2A07A007B08EB1B707F
:10051600011AEB4A70F7801BC2A07A007B08EB1B1E
:1005260070011AEB4A70F7D2A00BBB00010A0BBB95
:0705360000010A0EBE09BB23
:01053D00229B
:10068D001206347F057E001206167FCC1204F67F0B
:04069D00440204F619
:10049E001206347F057E001206167FCC1204F67FFC
:1004AE00BE1204F6120653AB07120653EFFEEBFF15
:1004BE00FDAC06EC120206E4FBFA7980783D1200E0
:1004CE00FB8F0E8E0D8D0C8C0BE4FFFE7D207C4180
:1004DE00AB0EAA0DA90CA80B1200FBE4FBFAF978DF
:0704EE003F12000A12023F59
:0104F50022E4
:100412001206C51205C77BFF7A05794EE4FF120565
:10042200707BFF7A05795F7F0112057012068D12CB
:10043200049EAB07AA067C007D641202ED8F087C45
:10044200007D64AF03AE021202ED7E007F0ACFCDC3
:10045200CFCECCCE1202ED8F097C007D0AAF03AE67
:10046200021202ED8D0AC3EA6480948050077D2D4A
:100472007F16120670E5082430FD7F16120670E51D
:10048200092430FD7F171206707D2E7F1812067028
:0C049200E50A2430FD7F191206708090EE
:1005A000113A202020202020202020202020202040
:1005B0002020001129202020202020202020202061
:0605C00020202020200095
:06061000AB077F057E0030
:10061600D3EF9400EE940040147D727C00ED1D70C3
:0D062600011CED4C70F7EF1F70E61E80E325
:0106330022A4
:1006B400120610C295C293C29400D2958B80C29543
:0106C4002213
:1006A100120610C295D293C29400D2958B80C29546
:0306B100C29322CF
:04067000AE07A90523
:10067400EEC39410EE400524B0FA80032480FAAF50
:09068400021206B4AF010206A146
:060570008B0B8A0C890DC3
:10057600EFC454F0F50EE4F50FAF0E050EAB0BAA63
:100586000CA90D850F827583001202C0FD1206703C
:09059600050FE50FC3941040E0CD
:01059F002239
:1005C7007F0F7E001206167F381206B47F38120698
:1005D700B47F381206B47F061206B47F0C1206B435
:0505E7007F010206B4D3
:100003000202ABE86480F8E933E83360110460F07E
:10001300ED33EC337009E8FCE9FDEAFEEBFF220463
:1000230060DED3EB9FEA9EE99DE8C2E78CF0C2F75E
:1000330095F0400CE8CCF8E9CDF9EACEFAEBCFFB2A
:1000430012027685D0F05804700320D5B3E804700B
:10005300075002B2D50202B592D5EC0460F7E4CCA6
:10006300C0E0C398F8603B94186008400DD0E0FBF3
:1000730002028DE4FBFAC9FC8028E830E406E4C9F7
:10008300FBE4CAFCE830E305E4C9CACBFCE8540747
:100093006010F8C3E913F9EA13FAEB13FBEC13FC52
:1000A300D8F130F52FC3E49CFCEF9BFFEE9AFEEDF5
:1000B30099FDD0E0FBEF4E4D4C701222DB030202A0
:1000C300B2EC2CFCEF33FFEE33FEED33FDED30E706
:1000D300EB02028DEF2BFFEE3AFEED39FDD0E0FB94
:1000E30050130BBB00030202B5ED13FDEE13FEEF3D
:0800F30013FFEC13FC02028D67
:1000FB00EC4D6011E8497017ED33EC3304600DE4FF
:10010B00FCFFFEFD22E933E8330470F80202AB1268
:10011B00027658046009E4CC248150062850090269
:10012B0002B52840030202B2C0E0EB4A7044B9802A
:10013B0006D0E0FB0202A1EF4E701CBD8008EBFF66
:10014B00EAFEE9FD80EBE98DF0A4FEE5F00201E4A7
:10015B00E9CDF9EAFEEBFFEF89F0A4FCE5F0CE89DF
:10016B00F0A42EFFE435F0CD89F0A42DFEE435F09C
:10017B008067EF4E7005BD80D780C3EF8BF0A4ACCA
:10018B00F0EE8BF0A42CFCE435F0F8EF8AF0A42C05
:10019B00E5F038FCE433CB8DF0A42CFCE5F03BF818
:1001AB00EE8AF0A42CFCE5F038F8E433CF89F0A408
:1001BB002CFCE5F038CF3400CE89F0A42FFFE5F00E
:1001CB003EFEE433C98DF0A42EFEE5F039CD8AF066
:1001DB00A42FFFE5F03EFEE43DFD33D0E0FB5007DE
:1001EB000BBB000F0202B5EC2CFCEF33FFEE33FE22
:0601FB00ED33FD02028D50
:1002010075F020800E75F010800575F0087D007E78
:10021100007F003392D530D503120323EC33401015
:10022100EF33FFEE33FEED33FDEC33FCD5F0ED2281
:0E023100E5F0247EA2D513CC92E7CDCEFF22BD
:10023F00EDD2E7CD33EC3392D524814006E4FFFEB7
:10024F00FDFC22FCE4CFCECDCC24E0501174FF8016
:10025F00EDC3CC13CCCD13CDCE13CECF13CF0470B3
:07026F00F030D5DE0203238D
:10027600E9D2E7C933E833F892D5EDD2E7CD33ECCE
:0702860033FC5002B2D52247
:10028D00EC30E7100FBF000C0EBE00080DBD0004D2
:10029D000BEB6014A2D5EB13FCED92E7FD2274FF7E
:1002AD00FCFDFEFF22E480F8A2D574FF13FC7D80D7
:0302BD00E480EFEB
:10039200020412E493A3F8E493A34003F68001F26B
:1003A20008DFF48029E493A3F85407240CC8C3336C
:1003B200C4540F4420C8834004F456800146F6DF3B
:1003C200E4800B01020408102040809005A0E47E26
:1003D200019360BCA3FF543F30E509541FFEE49330
:1003E200A360010ECF54C025E060A840B8E493A3F7
:1003F200FAE493A3F8E493A3C8C582C8CAC583CA22
:10040200F0A3C8C582C8CAC583CADFE9DEE780BED9
:0105C6000034
:1002C000BB010CE58229F582E5833AF583E02250F3
:1002D00006E92582F8E622BBFE06E92582F8E2223D
:0D02E000E58229F582E5833AF583E4932257
:1002ED00C2D5EC30E709B2D5E4C39DFDE49CFCEE2C
:1002FD0030E715B2D5E4C39FFFE49EFE120331C370
:10030D00E49DFDE49CFC800312033130D507C3E46A
:06031D009FFFE49EFE229A
:0E032300C3E49FFFE49EFEE49DFDE49CFC22EB
:10033100BC000BBE0029EF8DF084FFADF022E4CCB0
:10034100F875F008EF2FFFEE33FEEC33FCEE9DEC79
:10035100984005FCEE9DFE0FD5F0E9E4CEFD22EDBF
:10036100F8F5F0EE8420D21CFEADF075F008EF2F09
:10037100FFED33FD4007985006D5F0F222C398FDFA
:050381000FD5F0EA2297
:00000001FF
