:020000040800F2
:10000000000400204701000875010008770100087E
:100010007B0100087F010008830100080000000048
:100020000000000000000000000000008701000840
:1000300089010008000000008B0100088D01000804
:1000400067010008670100086701000867010008F0
:1000500067010008670100086701000867010008E0
:1000600067010008670100086701000867010008D0
:1000700067010008670100086701000867010008C0
:1000800067010008670100086701000867010008B0
:1000900067010008670100086701000867010008A0
:1000A0006701000867010008670100086701000890
:1000B0006701000867010008670100086701000880
:1000C0006701000867010008670100086701000870
:1000D0006701000867010008670100086701000860
:1000E0006701000867010008670100086701000850
:1000F0006701000867010008670100086701000840
:10010000670100086701000867010008670100082F
:10011000670100086701000867010008670100081F
:10012000670100086701000867010008670100080F
:10013000DFF80CD001F010FC00480047550400081F
:1001400018020020704708488047084981F3088852
:1001500007480047FEE7FEE7FEE7FEE7FEE7FEE7AB
:10016000FEE7FEE7FEE7FEE7450100081802002073
:1001700031010008704700BFFEE700BFFEE700BF87
:10018000FEE700BFFEE7704770477047704700000A
:1001900000B585B0012144F2040000F0DFFC4FF40B
:1001A0000070ADF8100018208DF8130003208DF8B2
:1001B000120004A9744800F03FFA4FF48060ADF8D3
:1001C000100004208DF8130004A96F4800F034FAE1
:1001D0004FF4E13000900020ADF80400ADF80600C7
:1001E000ADF80800ADF80C000C20ADF80A00694627
:1001F000664800F064FD0121644800F0CEFD05B0C2
:1002000000BD70B504460D46E1B2604800F02DFE19
:1002100000BF5E48008810F0800FFAD0204670BD05
:10022000F0B503460D461646002729460A2E03D090
:10023000002008702846F0BD33B9302001F8010BCA
:10024000002008702846F6E7002B03DA2D2001F87D
:10025000010B5B4242F210720DE093FBF2F404B921
:1002600037B104F1300001F8010B04FB1233012710
:100270000A2092FBF0F2002AEFDC002008702846EA
:10028000D9E70FB470B586B006460CA8019073E0AC
:100290000B9800785C281CD10B98401C0B900078C0
:1002A0006E2809D072280FD10D21304600F0DDFDF7
:1002B0000B98401C0B900BE00A21304600F0D5FD56
:1002C0000B98401C0B9003E00B98401C0B9000BF58
:1002D0004BE00B980078252840D10B98401C0B90E0
:1002E0000078642818D0732833D1019810C8019081
:1002F0000BE02178304600F0B8FD00BF40213046C9
:1003000000F00AFE0028F9D0641C20780028F0D103
:100310000B98401C0B9020E0019820C801900A2205
:1003200002A92846FFF77CFF02AC0BE0217830469B
:1003300000F09BFD00BF4021304600F0EDFD00289D
:10034000F9D0641C20780028F0D10B98401C0B9049
:1003500003E00B98401C0B9000BF06E00B9810F8D0
:10036000011B0B90304600F080FD00BF402130465D
:1003700000F0D2FD0028F9D00B980078002887D132
:1003800006B070BC5DF814FB000801400038014065
:1003900000B587B0012141F2040000F0DFFBE0204E
:1003A000ADF8180001208DF81A0018208DF81B00F8
:1003B00006A94C4800F040F91020ADF818000120C3
:1003C0008DF81A0010208DF81B0006A9454800F092
:1003D00033F91021434800F0DAF90020ADF80400A9
:1003E0004FF48270ADF806000020ADF80800ADF8BB
:1003F0000A00ADF80C004FF40070ADF80E001020AC
:10040000ADF810000020ADF812000720ADF8140080
:1004100001A9354800F0EEFD0121334800F087FEC8
:1004200007B000BD10B500BF02212F4800F003FF48
:100430000028F9D0FF212C4800F0AAFE00BF0121BE
:10044000294800F0F8FE0028F9D0274800F0A2FE65
:10045000C0B210BD1CB500F088FFFFF799FFFFF791
:1004600097FE3DE010201F4914310860FFF7DAFFC6
:1004700005462C462402FFF7D5FF054610201949F2
:10048000103108602C4304F0040966003609304638
:1004900001F008F807460022144B00F091FFCDE967
:1004A000000101F01FF882468CB1B9F1000F0AD1AA
:1004B000504601F004F807463A460B4621460CA088
:1004C00001F08EFA06E015A001F08AFA02E01AA007
:1004D00001F086FA002400E0641C22488442FBD329
:1004E000C0E7000000080140003001400000D03F9C
:1004F000D4ADCABCCAFDBEDDCAC7A3BA25303458C4
:100500002C2020B5B1C7B0CEC2B6C8CAC7A3BA2581
:10051000342E3266A1A30D0A00000000CEB4BCEC5C
:10052000B2E2B5BDC8C8B5E7C5BCA3ACC7EBBCEC6F
:10053000B2E9A1A30D0A00006D617836363735C3E4
:10054000BBD3D0CAFDBEDDB7B5BBD8A3ACC7EBBC2F
:10055000ECB2E96D617836363735C1ACBDD3A1A3B5
:100560000D0A0000FFFF2F0010B50446C549601AB0
:100570008C422FD009DCC448201810D0B0F5806F11
:1005800016D0B0F5006F4AD11BE0B0F5806F2AD0CD
:10059000B0F5006F30D0B0F5406F40D135E00121AB
:1005A000042000F0F5FA0021042000F0F1FA37E011
:1005B0000121082000F0ECFA0021082000F0E8FA00
:1005C0002EE00121102000F0E3FA0021102000F0BD
:1005D000DFFA25E00121202000F0DAFA00212020B6
:1005E00000F0D6FA1CE00121402000F0D1FA0021F1
:1005F000402000F0CDFA13E00121802000F0C8FA7D
:100600000021802000F0C4FA0AE00121080200F075
:10061000BFFA00214FF4807000F0BAFA00E000BF8A
:1006200000BF10BD10B50121084600F0B1FA00214D
:10063000012000F0ADFA10BD2DE9F0410246002581
:100640000026002000230024002791F803C00CF0AE
:100650000F0591F803C01CF0100F03D091F802C0F1
:100660004CEA050591F800C0BCF1000F31D01468C8
:1006700000202BE04FF0010C0CFA00F3B1F800C0A1
:100680000CEA03069E4220D183004FF00F0C0CFAB7
:1006900003F7BC4305FA03FC4CEA040491F803C0D9
:1006A000BCF1280F06D14FF0010C0CFA00FCC2F887
:1006B00014C00AE091F803C0BCF1480F05D14FF017
:1006C000010C0CFA00FCC2F810C0401C0828D1D361
:1006D0001460B1F800C0BCF1FF0F34DD5468002095
:1006E0002EE000F1080C4FF0010808FA0CF3B1F805
:1006F00000C00CEA03069E4221D183004FF00F0C8C
:100700000CFA03F7BC4305FA03FC4CEA040491F825
:1007100003C0BCF1280F05D100F1080C08FA0CF851
:10072000C2F8148091F803C0BCF1480F07D100F162
:10073000080C4FF0010808FA0CF8C2F81080401CB1
:100740000828CED35460BDE8F0814FF6FF710180D8
:10075000022181700421C170704702460020936815
:100760000B4201D0012000E000207047014688685C
:1007700080B2704702460020D3680B4201D00120AE
:1007800000E0002070470146C86880B270470161F0
:100790007047416170470AB1016100E041617047F3
:1007A000C16070474FF480320A4382618161826187
:1007B00082698269704702460020344B18684FF600
:1007C0008073184040EA02100843304B18607047AD
:1007D0002F49C8617047F0B50A4600230024002164
:1007E00000252A4E7168C0F3034583B200F4401619
:1007F000B6F5401F08D121F07061244E766826F0CE
:100800007066224F7E6012E000F48016B6F5801FFD
:1008100006D1032606FA05F4A14341F0706106E013
:10082000460D360103FA06F6B14341F0706122B17C
:10083000460D360103FA06F63143144E7160F0BDE1
:1008400030B500228B071C0F0F2303FA04F20F4B65
:1008500008338C1053F8243093430C4C08348D101B
:1008600044F8253023468C1053F824308C07240F8D
:1008700000FA04F42343054C08348D1044F8253065
:1008800030BD00000014014000F8FEBF0000014030
:1008900000002042DA48006840F00100D8490860B2
:1008A00008464068D7490840D5494860084600686E
:1008B000D5490840D24908600846006820F48020E5
:1008C00008600846406820F4FE0048600020886008
:1008D0007047CB49096821F48031C94A116011463B
:1008E000096821F480211160B0F5803F03D0B0F594
:1008F000802F0ED106E0C249096841F48031C04A18
:10090000116007E0BE49096841F4A021BC4A1160AA
:1009100000E000BF00BF704710B501460022002371
:1009200000204A11012A02D1B54C236806E0022AB0
:1009300002D1B34C236A01E0B14C636A01F01F029B
:10094000012494401C4201D0012000E0002010BD91
:1009500070B500240025002600BF3120FFF7DCFF22
:100960000646641C16B9B4F5A06FF6D13120FFF726
:10097000D3FF08B1012500E00025284670BD0146DF
:1009800000209F4A106820F0F80040EAC100106083
:1009900070479E490860704702460020984B58688F
:1009A00020F47C1042EA01031843954B58607047CD
:1009B00096490866704701460020914A506820F029
:1009C00003000843506070478D48406800F00C00F9
:1009D0007047014600208A4A506820F0F000084322
:1009E0005060704701460020854A506820F4E0605E
:1009F00008435060704701460020814A506820F447
:100A0000605040EAC1005060704729B17C4A527A78
:100A100002437B4B5A7204E0794A527A8243784B04
:100A20005A7270477A490860704701460020744A3C
:100A3000506820F440400843506070470021754AD8
:100A400011706F4A82F82010012802D0042808D1C2
:100A500003E001216F4A117004E005216D4A117015
:100A600000E000BF00BF70476B49086070476449F1
:100A7000096A0143624A1162704767494439086054
:100A8000704730B500210022002400235C4D6D68C2
:100A900005F00C0121B1042905D0082923D105E076
:100AA0005E4D056022E05D4D05601FE0544D6D68B0
:100AB00005F47012022505EB9242514D6D6805F464
:100AC00080341CB9564D554305600BE04C4D6D68A4
:100AD00015F4003F03D0524D5543056002E04F4DE1
:100AE0005543056002E04D4D056000BF00BF444D19
:100AF0006D6805F0F00109094A4D6B5C0568DD4041
:100B000045603F4D6D6805F4E061090A454D6B5C39
:100B10004568DD4085603A4D6D6805F46051C90A4D
:100B2000404D6B5C4568DD40C560354D6D6805F432
:100B30004041890B3C4D6B5CC568B5FBF3F5056125
:100B400030BD29B12E4A526902432D4B5A6104E04F
:100B50002B4A526982432A4B5A61704729B1284A6D
:100B600092690243264B9A6104E0254A92698243C6
:100B7000234B9A61704729B1214AD2690243204B25
:100B8000DA6104E01E4AD26982431D4BDA61704784
:100B900029B11B4AD2680243194BDA6004E0184AB3
:100BA000D2688243164BDA60704729B1144A126941
:100BB0000243134B1A6104E0114A12698243104B3D
:100BC0001A61704714494039086070470F49C8647A
:100BD00070470B49C87170470948406A40F08070FF
:100BE00007494862704701460020054A92680A4258
:100BF00001D0012000E00020704701498872704751
:100C0000001002400000FFF8FFFFF6FE0000424225
:100C1000D8004242201002408004424200127A0072
:100C200000093D00000000201000002010B504461F
:100C3000D749601A8C422BD006DCD648201813D036
:100C4000B0F5806F38D119E0B0F5806F2AD0B0F5DB
:100C50006C4F31D101218803FFF79AFF00214FF437
:100C60008040FFF795FF28E001214804FFF79DFF32
:100C700000214FF40030FFF798FF1EE001218804A7
:100C8000FFF793FF00214FF48020FFF78EFF14E061
:100C90000121C804FFF789FF00214FF40020FFF76E
:100CA00084FF0AE001210805FFF77FFF00214FF4D0
:100CB0008010FFF77AFF00E000BF00BF10BD2DE9F4
:100CC000F04786B005460E460024A24600BF00BF8E
:100CD00000272F462C8A4CF6FF700440F08804430E
:100CE0002C82AC894EF6F3100440B0883189084359
:100CF000718908430443AC81AC8A4FF6FF4004403D
:100D0000B0890443AC8201A8FFF7BBFEA24887422A
:100D100002D1DDF810A001E0DDF80CA00AEBCA005A
:100D200000EB0A1031688900B0FBF1F86420B8FBD1
:100D3000F0F004012009642101FB1089322000EB4E
:100D40000910B0FBF1F000F00F0004432C8106B055
:100D5000BDE8F0874FF41651016000218180C18009
:100D600001810C21418100218181704710B502462B
:100D70000020108A4FF2FF0318400B884C88234351
:100D80008C882343CC8823431843108210BD002154
:100D9000018041808180C180704721B1828942F405
:100DA0000052828104E082894DF6FF731A408281ED
:100DB0007047F0B5034600240026002500201846A1
:100DC000C1F3421401F01F06012707FA06F5012CB2
:100DD00001D10C3004E0022C01D1103000E01430BD
:100DE0001AB107682F43076002E00768AF43076046
:100DF000F0BD1AB1838A0B43838202E0838A8B435E
:100E000083827047028A4FF6F0731A400282028A88
:100E10000A430282704782894FF2FF731A4082812F
:100E200082890A438281704721B1828942F002029D
:100E3000828104E082894FF6FD731A4082817047F7
:100E4000028A4FF6DF731A400282028A0A43028244
:100E5000704721B1028A42F48042028204E0028A91
:100E60004BF6FF731A4002827047C1F3080282807A
:100E7000704701468888C0F308007047818941F0B7
:100E8000010181817047028BD2B20283028B42EA58
:100E9000012202837047028B02F47F420283028B9D
:100EA0000A430283704721B1828A42F02002828283
:100EB00004E0828A4FF6DF731A408282704721B1C4
:100EC000828A42F01002828204E0828A4FF6EF7337
:100ED0001A408282704721B1828A42F008028282DF
:100EE00004E0828A4FF6F7731A4082827047828A42
:100EF0004FF6FB731A408282828A0A4382827047CD
:100F000021B1828A42F00202828204E0828A4FF694
:100F1000FD731A40828270470246002013880B42FC
:100F200001D0012000E000207047CA4302807047D2
:100F300070B502460B460024002100250020C3F3B3
:100F4000421503F01F01012606FA01F1012D02D11D
:100F50009689314006E0022D02D1168A314001E027
:100F6000968A31401C12012606FA04F41688344091
:100F700011B10CB1012000E0002070BD10B50022BD
:100F800000230A1201249440A3B2DC43048010BD64
:100F9000004C004000BCFFBF0038014010B50446C3
:100FA000BD4820180FD0B0F5806F16D0B0F5784F3F
:100FB0001DD101210803FFF7EBFD00214FF4805004
:100FC000FFF7E6FD14E001218803FFF7EEFD0021A5
:100FD0004FF48040FFF7E9FD0AE00121C803FFF765
:100FE000E4FD00214FF40040FFF7DFFD00E000BF0B
:100FF00000BF10BD10B50022028802F441520B88D8
:101000004C8823438C882343CC8823430C89234377
:101010004C8923438C892343CC8923431A43028080
:10102000838B4FF2FF74234083830B8A038210BDAE
:101030002DE9F04786B005460C464FF0000902271F
:101040004FF000084FF0010A0026A88B4FF2400134
:101050000840A88302202884B5F81C902089022823
:1010600001D100BF31E0A08810B94FF0010A01E0C2
:101070004FF0020A01A8FFF704FDE088B0F5007FF9
:101080000AD1019800EB8000400021890902B0FBE1
:10109000F1F0401D86B20BE04FEA4A102189484327
:1010A000019901EB81014900B1FBF0F0401D86B2CE
:1010B0000A20B6FBF0F606F00108A6EB0800C0F324
:1010C0004F074FF6FF7000EA0828022F01DBFF2FC1
:1010D00002DD02274FF0000847EA0800E1880843D4
:1010E0002884208840F4006061880843A188084370
:1010F0006189084340EA0909A5F81C9006B0BDE8DB
:10110000F0870021018041808180C180018141817F
:101110008181C181072101827047002101804180C6
:101120008180C1800221018100214181704721B16C
:10113000028842F04002028004E002884FF6BF734A
:101140001A400280704721B1828B42F48062828310
:1011500004E0828B4FF6FF331A408283704730B52C
:10116000002400230C110125A540ABB21AB18588DB
:101170001D43858002E085889D43858030BD1AB17E
:1011800083880B43838002E083888B43838070478E
:1011900081817047014688897047A1F57E42FF3AF8
:1011A00004D0028842F48072028004E002884FF684
:1011B000FF631A400280704721B1828842F0040226
:1011C000828004E082884FF6FB731A408280704769
:1011D00002884FF2FF731A40028002880A4302809D
:1011E0007047018841F480510180704721B1028825
:1011F00042F40052028004E002884DF6FF731A4068
:101200000280704702460020012901D0108B00E0C7
:10121000908A70470146088A7047B1F5804F04D123
:10122000028842F48042028004E002884BF6FF7399
:101230001A40028070470246002013890B4201D0F9
:10124000012000E000207047CA4302817047F0B5DA
:101250000246002000240023002501F00F0701268C
:10126000BE40B4B20B1101269E40B3B2968806EA86
:1012700003051689264202D00DB1012000E00020AE
:10128000F0BD10B5002201F00F040123A3409AB273
:10129000D343038110BD000000C8FFBF0021002020
:1012A000434A126842F48032414B1A6000BF404A00
:1012B000126802F40030491C10B9B1F5A06FF6D1E4
:1012C0003B4A126812F4003F01D0012000E00020E8
:1012D000012843D1374A126842F01002354B1A6098
:1012E0001A46126822F003021A601A46126842F087
:1012F00002021A602E4A52682D4B5A601A465268F2
:101300005A601A46526842F480625A601A4652681D
:1013100022F47C125A601A46526842F4E8125A606B
:101320001A46126842F080721A6000BF204A1268A2
:1013300012F0007FFAD01E4A526822F003021C4BC2
:101340005A601A46526842F002025A6000BF184AB8
:10135000526802F00C02082AF9D101E000BFFEE752
:10136000704710B5FFF79AFF10BD10B51048006820
:1013700040F001000E490860084640680E490840E8
:101380000B494860084600680C4908400849086055
:101390000846006820F4802008600846406820F471
:1013A000FE00486000208860FFF7DBFF10BD0000F2
:1013B00000100240002002400000FFF8FFFFF6FE90
:1013C0002DE9FE4F81EA030404F0004421F00041BE
:1013D00000944FF0000B23F0004350EA010402D0C8
:1013E00052EA030404D10020014603B0BDE8F08FA7
:1013F000C3F30A54C1F30A552C44A4F2F334019404
:10140000A0FB0254C1F3130141F48011C3F3130391
:1014100043F4801301FB024400FB034E840A970A45
:1014200044EA815447EA8357A4FB076802958D0A72
:1014300005FB07854FEA932C04FB0C542705029DFE
:101440004FEA065847EA1637B5EB08056EEB070C6E
:10145000870E920E47EA811742EA8312A7FB020128
:10146000B6EB0B0164EB00042B0D43EA0C335E1862
:1014700044EB1C50DA465146E7FB0201C5F3130466
:101480004FEA0B3343EA14534FEA0432019C43EA18
:101490000603A4F10C040294009CCDE900B400F012
:1014A000C7F8A2E70EB540F2334102910021CDE921
:1014B00000110A460B4600F0BBF803B000BD00F077
:1014C000004230F000400AD0C10D01F56071C0F358
:1014D000160042EA0151C20840071143704700203C
:1014E0000146704701F0004330B421F0004150EA5A
:1014F000010206D00A0DA2F56072C1F31301002AA1
:1015000002DC30BC00207047440F44EAC104C10033
:10151000E01830BC00EBC25000F047B830B50B46C5
:10152000014600202022012409E021FA02F59D4213
:1015300005D303FA02F5491B04FA02F52844151EE7
:10154000A2F10102F1DC30BD2DE9F05F054600207B
:1015500092469B4688460646814640241BE0284624
:1015600041464746224600F018FA53465A46C01AEA
:10157000914110D311461846224600F0FFF92D1A6A
:1015800067EB01084F4622460120002100F0F6F9E2
:1015900017EB00094E41201EA4F10104DFDC484690
:1015A00031462A464346BDE8F09F0029A8BF704750
:1015B000401C490008BF20F00100704710B4B0FA89
:1015C00080FC00FA0CF050EA010404BF10BC704724
:1015D00049B1CCF1200421FA04F411FA0CF118BF3E
:1015E000012121430843A3EB0C01CB1D0106000A96
:1015F000002BBEBF002010BC704700EBC35010444E
:101600000029A4BF10BC7047401C490008BF20F04F
:10161000010010BC704710B5002B08DA401C41F1E6
:10162000000192185B411A4301D120F0010010BD66
:101630002DE9F04D92469B4611B1B1FA81F202E0DC
:10164000B0FA80F22032904600F098F904460F4636
:1016500040EA0A0041EA0B0153465A46084303D1C7
:1016600020463946BDE8F08D114653EA010015D0F9
:10167000C8F14002504600F090F905460E4650462B
:101680005946424600F07AF9084301D0012000E0B3
:101690000020054346EAE0762C4337430A984FEA98
:1016A0004453A0EB08004FEAD4240A304FF0000264
:1016B00044EA47544FEAD72502D500200146D1E736
:1016C000010510196941DDE9084500196941BDE8C6
:1016D000F04DA0E72DE9FE4F804681EA0300C00FE0
:1016E0000C46009021F0004123F00045B8EB0200C9
:1016F000A94105D24046214690461C460B4602466B
:1017000023F00040104304D14046214603B0BDE819
:10171000F08F270DC7F30A00C3F30A510290401A55
:101720000190402866DAC3F3130040F4801B009850
:10173000924620B10023D2EB030A63EB0B0B019816
:101740005946C0F14002504600F018F906460D46D1
:1017500050465946019A00F030F910EB08006141FB
:10176000002487EA115284EAE7731A433BD0009AB7
:101770003AB3019A012A4FEA075210DC001B61EBD1
:1017800002014FF0004202EA0752CDE90042001C7C
:1017900041F5801132462B46FFF74AFFB6E7001BA2
:1017A00061EB0201001C41F5801300185B41201819
:1017B000A2F5001747EB030140EAD570B6196D4159
:1017C00011E06D084FEA360645EAC0754FEA075248
:1017D000001B61EB0201001C41F5801149084FEA32
:1017E00030000019514132462B4603B0BDE8F04F9E
:1017F000FFF711BF0098012240000023D0EB020246
:1018000063EBE073009821464FEAE074B8EB000008
:1018100061EB0401E9E783F000435BE781F00041FD
:1018200058E72DE9F04D81EA030404F0004B21F064
:10183000004514464FF0000A23F0004150EA05022B
:1018400020D054EA01021DD0C5F30A570246C5F361
:101850001303C1F31300C1F30A5640F4801543F497
:101860008013A7EB0608101BD64608F2FD3873EB71
:10187000050002D308F1010801E092185B41B8F1BC
:10188000000F03DA00200146BDE8F08D00204FF480
:101890008011064684460EE0171B73EB050705D33F
:1018A000121B63EB050306434CEA010C49084FEA9F
:1018B000300092185B4150EA0107EDD152EA030073
:1018C00012D082EA040083EA0501084303D1002212
:1018D0004FF0004308E0101BAB4102D2012200236D
:1018E00002E06FF0010253101AEB06004CEB0851B6
:1018F00010EB0A0041EB0B01BDE8F04DFFF78BBE8A
:10190000C1F30A52C1F3130140F2FF3341F48011D5
:101910009A4202DA00200146704740F233439A426D
:10192000A2F2334202DC524200F037B800F026B88F
:1019300030B5002904DB4FF00044404264EB010164
:10194000002B04DB4FF00044524264EB0303994246
:1019500008BF904230BD0000064C074D06E0E0682D
:1019600040F0010394E8070098471034AC42F6D3E6
:10197000FEF7E2FBC4220008E4220008202A04DB70
:10198000203A00FA02F1002070479140C2F1200392
:1019900020FA03F3194390407047202A04DB203AD1
:1019A00021FA02F00021704721FA02F3D040C2F17F
:1019B00020029140084319467047202A06DBCB17C6
:1019C000203A41FA02F043EAE07306E041FA02F3FA
:1019D000D040C2F1200291400843194670470000F0
:1019E0000FB4054B10B503A9044A029800F0C6F8DD
:1019F00010BC5DF814FB0000030200081400002076
:101A000002E008C8121F08C1002AFAD170477047C7
:101A1000002001E001C1121F002AFBD17047000025
:101A20002DE9FF5FDDE90220010DDDF838B002434A
:101A300010D10F9801244CA2012808D00021009851
:101A40000F9BC0E90021C0E90243BDE8FF9F6FEA98
:101A50000B01F4E7A1F2FF3144F6105041430D149D
:101A60000F9801280ED0A5EB0B00401C4FF000048E
:101A70003E4EDFF8FC90B0F1000AA04605DACAF14C
:101A8000000717E0CBF10000F0E7074612E0F80787
:101A900007D02246334640464946FFF791FC804630
:101AA00089462246334610461946FFF789FC04460C
:101AB0000E467F10002FEAD1DDE90201BAF1000FD6
:101AC00042464B4602DAFFF77BFC01E0FFF7A9FE36
:101AD00004460E460022274BFFF72AFF03D84FF09B
:101AE000FF30014607E00022234B20463146FFF736
:101AF000F1FDFFF705FF102409E0002C0ADB0A22A4
:101B00000023FFF721FD019B30321A55641E50EA75
:101B10000102F2D1641C019AC4F1110314440F9A1A
:101B2000012A09D00122084301D15B450FDD4FF0A6
:101B3000000205F101050DE0084303D1A3EB0B05FD
:101B40006D1E09E000204FF0110B0F9088E701DABD
:101B500000226D1E002A83D000980F99C0E902313F
:101B6000C0E9004571E7000030000000000024409B
:101B70000000F03F0000F0430000E03F2DE9FF4F80
:101B800095B09B4689460646002512E2252878D165
:101B90000024761CF94A2746012105943378203B1E
:101BA00001FA03F0104202D00443761CF6E73078C5
:101BB0002A2811D06FF02F033078A0F13002092AC3
:101BC00016D8059A44F0020402EB820203EB4202AB
:101BD0001044761C0590EFE759F8042B0592002A73
:101BE00003DA504244F40054059044F00204761C99
:101BF00030782E2816D116F8010F44F004042A2854
:101C00000DD06FF02F023078A0F13003092B09D8E6
:101C100007EB870302EB4303C718761CF3E759F879
:101C2000047B761C30786C280FD006DC4C2817D04B
:101C300068280DD06A2814D104E0742810D07A28BE
:101C40000FD10DE044F400140AE044F4801401E0E4
:101C500044F440147278824202D1761C04F5801458
:101C6000761C307866280BD013DC582877D009DC36
:101C7000002875D04528F6D04628F4D047281AD138
:101C80009FE118E0632835D0642879D0652812D107
:101C900097E1702873D008DC6728F1D069286FD0ED
:101CA0006E280DD06F2806D1B5E073282CD075288A
:101CB00075D0782874D05A46179990476D1C76E1F4
:101CC000C4F30250022809D003280DD0D9F800101F
:101CD00004280DD00D6009F1040968E1D9F800105D
:101CE000EA17C1E90052F6E7D9F800100D80F2E7D3
:101CF0000D70F0E719F8041B8DF8001000208DF826
:101D00000100EA46012003E059F804AB4FF0FF3030
:101D100061074FF0000102D40DE008F1010188468F
:101D2000B9420FDA8045F8DB1AF808100029F4D11F
:101D300008E008F1010188468142FADB1AF8081030
:101D40000029F6D105985B46A0EB080721463846E6
:101D5000179A00F09EFA284400EB080507E04DE0D2
:101D60002BE10DE01AF8010B5A4617999047B8F18C
:101D70000108F7D25B4621463846179A14E142E043
:101D80000A220092C4F302524FF0000A022A08D03D
:101D900059F804CB032A4FEAEC710AD00DE029E090
:101DA0002AE009F1070121F00702F2E802C1914699
:101DB00009E00FFA8CFC4FEAEC71042A03D14FFAC8
:101DC0008CFC4FEAEC71002907DA0A460021DCF1AD
:101DD000000C61EB02012D2202E0220504D52B222A
:101DE0008DF80420012203E0E20701D02022F7E76A
:101DF000904653E00A2102E010220DE010214FF03E
:101E0000000A00910BE010224FF0000A44F0040495
:101E10000827009203E008224FF0000A0092C4F362
:101E20000252022A05D059F804CB0021032A08D017
:101E300009E009F1070121F00702F2E802C1914629
:101E400005E01FFA8CFC042A01D10CF0FF0C4FF0C6
:101E50000008220722D5702827D0009B83F01003AA
:101E600053EA0A0309D15CEA010206D030228DF858
:101E700004208DF8050002229046009B83F00803A1
:101E800053EA0A030AD15CEA010201D1620705D5CF
:101E900030228DF804204FF001087F1E582809D009
:101EA00037A003900EA8029013E040228DF8042082
:101EB0000122E1E737A0F4E753466046009AFFF7B6
:101EC00043FB84460398825C0298A0F101000290D3
:101ED00002705CEA0100EFD1029806A9A1EB0000B4
:101EE00000F1200A600702D524F4803400E00127C5
:101EF000574502DDA7EB0A0000E0002000EB0A01D5
:101F0000009005984144A0EB01000590E00306D441
:101F10005B462146179A059800F0BBF90544002757
:101F200006E001A85A46C05D179990476D1C7F1CBA
:101F30004745F6DBE0030CD55B462146179A05982A
:101F400000F0A7F9054404E030205A46179990475D
:101F50006D1C0099481E00900029F5DC08E00298ED
:101F600002995A460078491C0291179990476D1CB6
:101F7000BAF10001AAF1010AF1DC6BE109280100C4
:101F800030313233343536373839616263646566EF
:101F900000000000303132333435363738394142B1
:101FA000434445460000000000F060F9054406F196
:101FB0000106307800287FF4E9AD19B02846BDE865
:101FC000F08F620700D4062709F1070222F0070C00
:101FD000FCE80223E14603F000485FEA080C02D067
:101FE0000FF27C2C0DE05FEA045C02D50FF2742C3A
:101FF00007E05FEAC47C02D00FF26C2C01E0AFF284
:10200000700C4FF0FF3823F00043CDF850C0652826
:102010000CD006DC452809D046281DD047283ED1E3
:102020003EE0662818D0672839D139E00021112F09
:1020300001DB112000E0781CCDE9000106A90EA803
:10204000FFF7EEFCDDE90F010E9A039100210092EB
:1020500007F1010A04914EE04FF000400097CDE9EE
:10206000011006A90EA8FFF7DBFCDDE90F020392C1
:102070000E9B11990022DDF80CA00093049219B96F
:1020800007F1010100EB010AB7EB0A0004D4C0F12B
:10209000FF3007F1010A0490AAEB0700019046E027
:1020A000012F00DA01270021112F01DD112000E0AE
:1020B0003846CDE9000106A90EA8FFF7B1FCDDE91D
:1020C0000F010E9A0391002104910092BA46210754
:1020D0000CD40399514500DA8A46BAF1010F05DDA7
:1020E000009AAAF10101515C302908D0B84202DA05
:1020F00010F1040F06DA0121CDE9011017E0AAF171
:102100000101E9E7002805DC049901440491AAEBE8
:10211000000102E0411C514500DD8A460499A0EB14
:10212000010000F1010001904FF0004002902007F3
:1021300004D40198504501DBCDF8048000208DF8CF
:102140004F0002980DF14F07B0F1004F25D02B2022
:102150000E9002984FF0020800280CDA40420290DC
:102160002D200E9007E00A210298FFF7D7F93031B1
:10217000029007F8011DB8F10001A8F10108F2DC96
:1021800002980028EFD1791E0E980870307800F080
:10219000200040F0450007F8020D12A8A0EB070050
:1021A00000F107081498007800B1012000EB0A0143
:1021B000019801EBE07105984144A0EB0100A0F10A
:1021C00001000590E00306D45B462146179A059866
:1021D00000F05FF805441498007820B15A4617992A
:1021E000904705F10105E00323D55B462146179A88
:1021F000059800F04EF805441BE00498002807DB22
:102200000399814204DD04990098405C179901E02C
:10221000179930205A46904704986D1C401C049032
:102220000198401E019004D12E205A4617999047DC
:102230006D1CBAF10001AAF1010ADEDC05E017F815
:10224000010B5A46179990476D1CB8F10001A8F18F
:102250000108F4DC5B462146179A0598A4E60000C5
:102260002D0000002B000000200000002DE9F041AF
:10227000044600251E461746880405D406E0394664
:102280002020B04705F10105641EF8D52846BDE8B9
:10229000F0812DE9F041044600251E469046C80312
:1022A00001D5302700E02027880405D506E0414607
:1022B0003846B04705F10105641EF8D52846BDE84B
:1022C000F0810000E4220008000000201800000057
:1022D000001A0008FC22000818000020000200007C
:1022E000101A0008000000000102030401020304A8
:0C22F000060708090204060800000000B0
:0400000508000147A7
:00000001FF
